{
  "contractName": "CollateralizedSimpleInterestTermsContract",
  "abi": [
    {
      "constant": true,
      "inputs": [],
      "name": "debtKernelAddress",
      "outputs": [
        {
          "name": "",
          "type": "address"
        }
      ],
      "payable": false,
      "stateMutability": "view",
      "type": "function"
    },
    {
      "constant": true,
      "inputs": [
        {
          "name": "agreementId",
          "type": "bytes32"
        }
      ],
      "name": "getValueRepaidToDate",
      "outputs": [
        {
          "name": "_valueRepaid",
          "type": "uint256"
        }
      ],
      "payable": false,
      "stateMutability": "view",
      "type": "function"
    },
    {
      "constant": true,
      "inputs": [],
      "name": "DAY_LENGTH_IN_SECONDS",
      "outputs": [
        {
          "name": "",
          "type": "uint256"
        }
      ],
      "payable": false,
      "stateMutability": "view",
      "type": "function"
    },
    {
      "constant": true,
      "inputs": [],
      "name": "debtKernel",
      "outputs": [
        {
          "name": "",
          "type": "address"
        }
      ],
      "payable": false,
      "stateMutability": "view",
      "type": "function"
    },
    {
      "constant": true,
      "inputs": [],
      "name": "MONTH_LENGTH_IN_SECONDS",
      "outputs": [
        {
          "name": "",
          "type": "uint256"
        }
      ],
      "payable": false,
      "stateMutability": "view",
      "type": "function"
    },
    {
      "constant": true,
      "inputs": [
        {
          "name": "_agreementId",
          "type": "bytes32"
        }
      ],
      "name": "getTermEndTimestamp",
      "outputs": [
        {
          "name": "",
          "type": "uint256"
        }
      ],
      "payable": false,
      "stateMutability": "view",
      "type": "function"
    },
    {
      "constant": true,
      "inputs": [],
      "name": "debtRegistry",
      "outputs": [
        {
          "name": "",
          "type": "address"
        }
      ],
      "payable": false,
      "stateMutability": "view",
      "type": "function"
    },
    {
      "constant": true,
      "inputs": [],
      "name": "WEEK_LENGTH_IN_SECONDS",
      "outputs": [
        {
          "name": "",
          "type": "uint256"
        }
      ],
      "payable": false,
      "stateMutability": "view",
      "type": "function"
    },
    {
      "constant": false,
      "inputs": [
        {
          "name": "agreementId",
          "type": "bytes32"
        }
      ],
      "name": "returnCollateral",
      "outputs": [],
      "payable": false,
      "stateMutability": "nonpayable",
      "type": "function"
    },
    {
      "constant": true,
      "inputs": [
        {
          "name": "gracePeriodInDays",
          "type": "uint256"
        }
      ],
      "name": "timestampAdjustedForGracePeriod",
      "outputs": [
        {
          "name": "",
          "type": "uint256"
        }
      ],
      "payable": false,
      "stateMutability": "view",
      "type": "function"
    },
    {
      "constant": false,
      "inputs": [
        {
          "name": "agreementId",
          "type": "bytes32"
        },
        {
          "name": "payer",
          "type": "address"
        },
        {
          "name": "beneficiary",
          "type": "address"
        },
        {
          "name": "unitsOfRepayment",
          "type": "uint256"
        },
        {
          "name": "tokenAddress",
          "type": "address"
        }
      ],
      "name": "registerRepayment",
      "outputs": [
        {
          "name": "_success",
          "type": "bool"
        }
      ],
      "payable": false,
      "stateMutability": "nonpayable",
      "type": "function"
    },
    {
      "constant": true,
      "inputs": [],
      "name": "SECONDS_IN_DAY",
      "outputs": [
        {
          "name": "",
          "type": "uint256"
        }
      ],
      "payable": false,
      "stateMutability": "view",
      "type": "function"
    },
    {
      "constant": true,
      "inputs": [],
      "name": "HOUR_LENGTH_IN_SECONDS",
      "outputs": [
        {
          "name": "",
          "type": "uint256"
        }
      ],
      "payable": false,
      "stateMutability": "view",
      "type": "function"
    },
    {
      "constant": true,
      "inputs": [],
      "name": "repaymentRouter",
      "outputs": [
        {
          "name": "",
          "type": "address"
        }
      ],
      "payable": false,
      "stateMutability": "view",
      "type": "function"
    },
    {
      "constant": true,
      "inputs": [],
      "name": "INTEREST_RATE_SCALING_FACTOR",
      "outputs": [
        {
          "name": "",
          "type": "uint256"
        }
      ],
      "payable": false,
      "stateMutability": "view",
      "type": "function"
    },
    {
      "constant": true,
      "inputs": [],
      "name": "NUM_AMORTIZATION_UNIT_TYPES",
      "outputs": [
        {
          "name": "",
          "type": "uint256"
        }
      ],
      "payable": false,
      "stateMutability": "view",
      "type": "function"
    },
    {
      "constant": false,
      "inputs": [
        {
          "name": "agreementId",
          "type": "bytes32"
        },
        {
          "name": "debtor",
          "type": "address"
        }
      ],
      "name": "registerTermStart",
      "outputs": [
        {
          "name": "_success",
          "type": "bool"
        }
      ],
      "payable": false,
      "stateMutability": "nonpayable",
      "type": "function"
    },
    {
      "constant": true,
      "inputs": [
        {
          "name": "agreementId",
          "type": "bytes32"
        },
        {
          "name": "timestamp",
          "type": "uint256"
        }
      ],
      "name": "getExpectedRepaymentValue",
      "outputs": [
        {
          "name": "_expectedRepaymentValue",
          "type": "uint256"
        }
      ],
      "payable": false,
      "stateMutability": "view",
      "type": "function"
    },
    {
      "constant": true,
      "inputs": [],
      "name": "tokenRegistry",
      "outputs": [
        {
          "name": "",
          "type": "address"
        }
      ],
      "payable": false,
      "stateMutability": "view",
      "type": "function"
    },
    {
      "constant": true,
      "inputs": [
        {
          "name": "parameters",
          "type": "bytes32"
        }
      ],
      "name": "unpackCollateralParametersFromBytes",
      "outputs": [
        {
          "name": "",
          "type": "uint256"
        },
        {
          "name": "",
          "type": "uint256"
        },
        {
          "name": "",
          "type": "uint256"
        }
      ],
      "payable": false,
      "stateMutability": "pure",
      "type": "function"
    },
    {
      "constant": true,
      "inputs": [
        {
          "name": "",
          "type": "bytes32"
        }
      ],
      "name": "agreementToCollateralizer",
      "outputs": [
        {
          "name": "",
          "type": "address"
        }
      ],
      "payable": false,
      "stateMutability": "view",
      "type": "function"
    },
    {
      "constant": true,
      "inputs": [
        {
          "name": "parameters",
          "type": "bytes32"
        }
      ],
      "name": "unpackParametersFromBytes",
      "outputs": [
        {
          "name": "_principalTokenIndex",
          "type": "uint256"
        },
        {
          "name": "_principalAmount",
          "type": "uint256"
        },
        {
          "name": "_interestRate",
          "type": "uint256"
        },
        {
          "name": "_amortizationUnitType",
          "type": "uint256"
        },
        {
          "name": "_termLengthInAmortizationUnits",
          "type": "uint256"
        }
      ],
      "payable": false,
      "stateMutability": "pure",
      "type": "function"
    },
    {
      "constant": false,
      "inputs": [
        {
          "name": "agreementId",
          "type": "bytes32"
        }
      ],
      "name": "seizeCollateral",
      "outputs": [],
      "payable": false,
      "stateMutability": "nonpayable",
      "type": "function"
    },
    {
      "constant": true,
      "inputs": [],
      "name": "YEAR_LENGTH_IN_SECONDS",
      "outputs": [
        {
          "name": "",
          "type": "uint256"
        }
      ],
      "payable": false,
      "stateMutability": "view",
      "type": "function"
    },
    {
      "constant": true,
      "inputs": [
        {
          "name": "",
          "type": "bytes32"
        }
      ],
      "name": "valueRepaid",
      "outputs": [
        {
          "name": "",
          "type": "uint256"
        }
      ],
      "payable": false,
      "stateMutability": "view",
      "type": "function"
    },
    {
      "inputs": [
        {
          "name": "_debtKernel",
          "type": "address"
        },
        {
          "name": "_debtRegistry",
          "type": "address"
        },
        {
          "name": "_tokenRegistry",
          "type": "address"
        },
        {
          "name": "_repaymentRouter",
          "type": "address"
        }
      ],
      "payable": false,
      "stateMutability": "nonpayable",
      "type": "constructor"
    },
    {
      "anonymous": false,
      "inputs": [
        {
          "indexed": true,
          "name": "agreementId",
          "type": "bytes32"
        },
        {
          "indexed": true,
          "name": "principalToken",
          "type": "address"
        },
        {
          "indexed": false,
          "name": "principalAmount",
          "type": "uint256"
        },
        {
          "indexed": false,
          "name": "interestRate",
          "type": "uint256"
        },
        {
          "indexed": true,
          "name": "amortizationUnitType",
          "type": "uint256"
        },
        {
          "indexed": false,
          "name": "termLengthInAmortizationUnits",
          "type": "uint256"
        }
      ],
      "name": "LogSimpleInterestTermStart",
      "type": "event"
    },
    {
      "anonymous": false,
      "inputs": [
        {
          "indexed": true,
          "name": "agreementID",
          "type": "bytes32"
        },
        {
          "indexed": false,
          "name": "token",
          "type": "address"
        },
        {
          "indexed": false,
          "name": "amount",
          "type": "uint256"
        }
      ],
      "name": "CollateralLocked",
      "type": "event"
    },
    {
      "anonymous": false,
      "inputs": [
        {
          "indexed": true,
          "name": "agreementID",
          "type": "bytes32"
        },
        {
          "indexed": true,
          "name": "collateralizer",
          "type": "address"
        },
        {
          "indexed": false,
          "name": "token",
          "type": "address"
        },
        {
          "indexed": false,
          "name": "amount",
          "type": "uint256"
        }
      ],
      "name": "CollateralReturned",
      "type": "event"
    },
    {
      "anonymous": false,
      "inputs": [
        {
          "indexed": true,
          "name": "agreementID",
          "type": "bytes32"
        },
        {
          "indexed": true,
          "name": "beneficiary",
          "type": "address"
        },
        {
          "indexed": false,
          "name": "token",
          "type": "address"
        },
        {
          "indexed": false,
          "name": "amount",
          "type": "uint256"
        }
      ],
      "name": "CollateralSeized",
      "type": "event"
    }
  ],
  "bytecode": "0x6060604052341561000f57600080fd5b6040516080806121508339810160405280805190602001909190805190602001909190805190602001909190805190602001909190505083838383878787826000806101000a81548173ffffffffffffffffffffffffffffffffffffffff021916908373ffffffffffffffffffffffffffffffffffffffff16021790555081600160006101000a81548173ffffffffffffffffffffffffffffffffffffffff021916908373ffffffffffffffffffffffffffffffffffffffff16021790555080600260006101000a81548173ffffffffffffffffffffffffffffffffffffffff021916908373ffffffffffffffffffffffffffffffffffffffff16021790555050505082600560006101000a81548173ffffffffffffffffffffffffffffffffffffffff021916908373ffffffffffffffffffffffffffffffffffffffff16021790555081600660006101000a81548173ffffffffffffffffffffffffffffffffffffffff021916908373ffffffffffffffffffffffffffffffffffffffff16021790555083600760006101000a81548173ffffffffffffffffffffffffffffffffffffffff021916908373ffffffffffffffffffffffffffffffffffffffff16021790555080600860006101000a81548173ffffffffffffffffffffffffffffffffffffffff021916908373ffffffffffffffffffffffffffffffffffffffff1602179055505050505050505050611f238061022d6000396000f300606060405260043610610148576000357c0100000000000000000000000000000000000000000000000000000000900463ffffffff1680627eb6671461014d57806303a896a1146101a257806307762982146101dd578063079dd4b714610206578063208638941461025b5780632762dd8c146102845780632f866f73146102bf57806340018a0d1461031457806344c4ea951461033d5780634bbf7a67146103645780635f0280ba1461039b57806361a52a36146104405780636f69c96f146104695780636fa9d0561461049257806378b376cc146104e75780638b47e58a14610510578063977a5e641461053957806399114d84146105975780639d23c4c7146105db578063ca06264714610630578063e4b67a4c14610679578063ed8907d7146106e0578063ed8e52bd14610737578063fd127a411461075e578063fd40d52e14610787575b600080fd5b341561015857600080fd5b6101606107c2565b604051808273ffffffffffffffffffffffffffffffffffffffff1673ffffffffffffffffffffffffffffffffffffffff16815260200191505060405180910390f35b34156101ad57600080fd5b6101c76004808035600019169060200190919050506107e7565b6040518082815260200191505060405180910390f35b34156101e857600080fd5b6101f061080c565b6040518082815260200191505060405180910390f35b341561021157600080fd5b610219610815565b604051808273ffffffffffffffffffffffffffffffffffffffff1673ffffffffffffffffffffffffffffffffffffffff16815260200191505060405180910390f35b341561026657600080fd5b61026e61083b565b6040518082815260200191505060405180910390f35b341561028f57600080fd5b6102a9600480803560001916906020019091905050610847565b6040518082815260200191505060405180910390f35b34156102ca57600080fd5b6102d2610869565b604051808273ffffffffffffffffffffffffffffffffffffffff1673ffffffffffffffffffffffffffffffffffffffff16815260200191505060405180910390f35b341561031f57600080fd5b61032761088f565b6040518082815260200191505060405180910390f35b341561034857600080fd5b61036260048080356000191690602001909190505061089b565b005b341561036f57600080fd5b6103856004808035906020019091905050610b89565b6040518082815260200191505060405180910390f35b34156103a657600080fd5b61042660048080356000191690602001909190803573ffffffffffffffffffffffffffffffffffffffff1690602001909190803573ffffffffffffffffffffffffffffffffffffffff1690602001909190803590602001909190803573ffffffffffffffffffffffffffffffffffffffff16906020019091905050610bba565b604051808215151515815260200191505060405180910390f35b341561044b57600080fd5b610453610cc8565b6040518082815260200191505060405180910390f35b341561047457600080fd5b61047c610ccf565b6040518082815260200191505060405180910390f35b341561049d57600080fd5b6104a5610cd5565b604051808273ffffffffffffffffffffffffffffffffffffffff1673ffffffffffffffffffffffffffffffffffffffff16815260200191505060405180910390f35b34156104f257600080fd5b6104fa610cfb565b6040518082815260200191505060405180910390f35b341561051b57600080fd5b610523610d01565b6040518082815260200191505060405180910390f35b341561054457600080fd5b61057d60048080356000191690602001909190803573ffffffffffffffffffffffffffffffffffffffff16906020019091905050610d06565b604051808215151515815260200191505060405180910390f35b34156105a257600080fd5b6105c5600480803560001916906020019091908035906020019091905050611005565b6040518082815260200191505060405180910390f35b34156105e657600080fd5b6105ee61118b565b604051808273ffffffffffffffffffffffffffffffffffffffff1673ffffffffffffffffffffffffffffffffffffffff16815260200191505060405180910390f35b341561063b57600080fd5b6106556004808035600019169060200190919050506111b1565b60405180848152602001838152602001828152602001935050505060405180910390f35b341561068457600080fd5b61069e60048080356000191690602001909190505061123d565b604051808273ffffffffffffffffffffffffffffffffffffffff1673ffffffffffffffffffffffffffffffffffffffff16815260200191505060405180910390f35b34156106eb57600080fd5b610705600480803560001916906020019091905050611270565b604051808681526020018581526020018481526020018381526020018281526020019550505050505060405180910390f35b341561074257600080fd5b61075c600480803560001916906020019091905050611368565b005b341561076957600080fd5b6107716116c7565b6040518082815260200191505060405180910390f35b341561079257600080fd5b6107ac6004808035600019169060200190919050506116d4565b6040518082815260200191505060405180910390f35b6000809054906101000a900473ffffffffffffffffffffffffffffffffffffffff1681565b6000600460008360001916600019168152602001908152602001600020549050919050565b6018610e100281565b600760009054906101000a900473ffffffffffffffffffffffffffffffffffffffff1681565b601e6018610e10020281565b6000610851611e98565b61085a836116ec565b90508060800151915050919050565b600560009054906101000a900473ffffffffffffffffffffffffffffffffffffffff1681565b60076018610e10020281565b6000806000806108aa85611a56565b8094508195508296505050506000831115156108c557600080fd5b600073ffffffffffffffffffffffffffffffffffffffff168473ffffffffffffffffffffffffffffffffffffffff161415151561090157600080fd5b600073ffffffffffffffffffffffffffffffffffffffff1660036000876000191660001916815260200190815260200160002060009054906101000a900473ffffffffffffffffffffffffffffffffffffffff1673ffffffffffffffffffffffffffffffffffffffff161415151561097857600080fd5b4261098286610847565b10151561098e57600080fd5b610997856107e7565b6109a18642611005565b111515156109ae57600080fd5b60036000866000191660001916815260200190815260200160002060009054906101000a900473ffffffffffffffffffffffffffffffffffffffff16905060036000866000191660001916815260200190815260200160002060006101000a81549073ffffffffffffffffffffffffffffffffffffffff02191690558373ffffffffffffffffffffffffffffffffffffffff1663a9059cbb82856000604051602001526040518363ffffffff167c0100000000000000000000000000000000000000000000000000000000028152600401808373ffffffffffffffffffffffffffffffffffffffff1673ffffffffffffffffffffffffffffffffffffffff16815260200182815260200192505050602060405180830381600087803b1515610ad557600080fd5b6102c65a03f11515610ae657600080fd5b505050604051805190501515610afb57600080fd5b8073ffffffffffffffffffffffffffffffffffffffff1685600019167f2621540e2b91ca10330d6a7cbd6fb8cab2396f91c4935ad76b1183770819fa1f8686604051808373ffffffffffffffffffffffffffffffffffffffff1673ffffffffffffffffffffffffffffffffffffffff1681526020018281526020019250505060405180910390a35050505050565b6000610bb3610ba48362015180611c4890919063ffffffff16565b42611c8390919063ffffffff16565b9050919050565b6000610bc4611e98565b600860009054906101000a900473ffffffffffffffffffffffffffffffffffffffff1673ffffffffffffffffffffffffffffffffffffffff163373ffffffffffffffffffffffffffffffffffffffff16141515610c2057600080fd5b610c29876116ec565b9050806000015173ffffffffffffffffffffffffffffffffffffffff168373ffffffffffffffffffffffffffffffffffffffff161415610cb957610c9184600460008a6000191660001916815260200190815260200160002054611c9c90919063ffffffff16565b6004600089600019166000191681526020019081526020016000208190555060019150610cbe565b600091505b5095945050505050565b6201518081565b610e1081565b600860009054906101000a900473ffffffffffffffffffffffffffffffffffffffff1681565b61271081565b600581565b6000806000806000806000806000600760009054906101000a900473ffffffffffffffffffffffffffffffffffffffff1673ffffffffffffffffffffffffffffffffffffffff163373ffffffffffffffffffffffffffffffffffffffff16141515610d7057600080fd5b600560009054906101000a900473ffffffffffffffffffffffffffffffffffffffff1673ffffffffffffffffffffffffffffffffffffffff16636be39bda8c6000604051604001526040518263ffffffff167c01000000000000000000000000000000000000000000000000000000000281526004018082600019166000191681526020019150506040805180830381600087803b1515610e1057600080fd5b6102c65a03f11515610e2157600080fd5b505050604051805190602001805190508098508199505050610e4287611270565b809650819750829850839950849a505050505050600660009054906101000a900473ffffffffffffffffffffffffffffffffffffffff1673ffffffffffffffffffffffffffffffffffffffff16635715c5b7876000604051602001526040518263ffffffff167c010000000000000000000000000000000000000000000000000000000002815260040180828152602001915050602060405180830381600087803b1515610eef57600080fd5b6102c65a03f11515610f0057600080fd5b505050604051805190509050600073ffffffffffffffffffffffffffffffffffffffff168173ffffffffffffffffffffffffffffffffffffffff1614158015610f495750600583105b8015610f8057503073ffffffffffffffffffffffffffffffffffffffff168873ffffffffffffffffffffffffffffffffffffffff16145b15610ff257828173ffffffffffffffffffffffffffffffffffffffff168c600019167f2c500aaec6833a053693d8c2a18a3ed5649a4609699abaf7778c3d389cc40c0588888760405180848152602001838152602001828152602001935050505060405180910390a460019850610ff7565b600098505b505050505050505092915050565b600061100f611e98565b60008085600560009054906101000a900473ffffffffffffffffffffffffffffffffffffffff1673ffffffffffffffffffffffffffffffffffffffff1663f6f494c9826000604051602001526040518263ffffffff167c0100000000000000000000000000000000000000000000000000000000028152600401808260001916600019168152602001915050602060405180830381600087803b15156110b457600080fd5b6102c65a03f115156110c557600080fd5b5050506040518051905073ffffffffffffffffffffffffffffffffffffffff163073ffffffffffffffffffffffffffffffffffffffff1614151561110857600080fd5b611111876116ec565b935061111c84611cba565b92508360600151861115156111345760009450611181565b83608001518610151561114957829450611181565b6111538685611d29565b915061117e8460c001516111708486611c4890919063ffffffff16565b611d7390919063ffffffff16565b94505b5050505092915050565b600660009054906101000a900473ffffffffffffffffffffffffffffffffffffffff1681565b6000806000806000806000806d0ff0000000000000000000000000600102891694506c0fffffffffffffffffffffff00600102891693506c10000000000000000000000000856001900481151561120457fe5b049250610100846001900481151561121857fe5b04915060ff600102891690508282826001900497509750975050505050509193909250565b60036020528060005260406000206000915054906101000a900473ffffffffffffffffffffffffffffffffffffffff1681565b6000806000806000806000806000807fff000000000000000000000000000000000000000000000000000000000000006001028b1694507effffffffffffffffffffffff000000000000000000000000000000000000006001028b16935072ffffff000000000000000000000000000000006001028b1692506ff00000000000000000000000000000006001028b1691506f0ffff0000000000000000000000000006001028b1690506113248560f8611d8e565b61132f856098611d8e565b61133a856080611d8e565b61134585607c611d8e565b61135085606c611d8e565b99509950995099509950505050505091939590929450565b60008060008061137785611a56565b80945081955082965050505060008311151561139257600080fd5b600073ffffffffffffffffffffffffffffffffffffffff168473ffffffffffffffffffffffffffffffffffffffff16141515156113ce57600080fd5b600073ffffffffffffffffffffffffffffffffffffffff1660036000876000191660001916815260200190815260200160002060009054906101000a900473ffffffffffffffffffffffffffffffffffffffff1673ffffffffffffffffffffffffffffffffffffffff161415151561144557600080fd5b61144e856107e7565b6114608661145b85610b89565b611005565b11151561146c57600080fd5b60036000866000191660001916815260200190815260200160002060006101000a81549073ffffffffffffffffffffffffffffffffffffffff0219169055600160009054906101000a900473ffffffffffffffffffffffffffffffffffffffff1673ffffffffffffffffffffffffffffffffffffffff1663ba20dda4866000604051602001526040518263ffffffff167c0100000000000000000000000000000000000000000000000000000000028152600401808260001916600019168152602001915050602060405180830381600087803b151561154b57600080fd5b6102c65a03f1151561155c57600080fd5b5050506040518051905090508373ffffffffffffffffffffffffffffffffffffffff1663a9059cbb82856000604051602001526040518363ffffffff167c0100000000000000000000000000000000000000000000000000000000028152600401808373ffffffffffffffffffffffffffffffffffffffff1673ffffffffffffffffffffffffffffffffffffffff16815260200182815260200192505050602060405180830381600087803b151561161357600080fd5b6102c65a03f1151561162457600080fd5b50505060405180519050151561163957600080fd5b8073ffffffffffffffffffffffffffffffffffffffff1685600019167f50d195a4b80a950617a8e0e18ac9dd4c0236ac72d5e12355d881443823870d398686604051808373ffffffffffffffffffffffffffffffffffffffff1673ffffffffffffffffffffffffffffffffffffffff1681526020018281526020019250505060405180910390a35050505050565b61016d6018610e10020281565b60046020528060005260406000206000915090505481565b6116f4611e98565b600080600080600080600080600080600080600560009054906101000a900473ffffffffffffffffffffffffffffffffffffffff1673ffffffffffffffffffffffffffffffffffffffff1663314a522e8f6000604051602001526040518263ffffffff167c0100000000000000000000000000000000000000000000000000000000028152600401808260001916600019168152602001915050602060405180830381600087803b15156117a757600080fd5b6102c65a03f115156117b857600080fd5b505050604051805190509b506117cd8c611270565b809b50819c50829d50839e50849f505050505050600660009054906101000a900473ffffffffffffffffffffffffffffffffffffffff1673ffffffffffffffffffffffffffffffffffffffff16635715c5b78c6000604051602001526040518263ffffffff167c010000000000000000000000000000000000000000000000000000000002815260040180828152602001915050602060405180830381600087803b151561187a57600080fd5b6102c65a03f1151561188b57600080fd5b505050604051805190509550600073ffffffffffffffffffffffffffffffffffffffff168673ffffffffffffffffffffffffffffffffffffffff16141515156118d357600080fd5b6004808111156118df57fe5b88111515156118ed57600080fd5b8760048111156118f957fe5b945061190485611dab565b9350600560009054906101000a900473ffffffffffffffffffffffffffffffffffffffff1673ffffffffffffffffffffffffffffffffffffffff1663d69dbf638f6000604051602001526040518263ffffffff167c0100000000000000000000000000000000000000000000000000000000028152600401808260001916600019168152602001915050602060405180830381600087803b15156119a757600080fd5b6102c65a03f115156119b857600080fd5b5050506040518051905092506119d78488611c4890919063ffffffff16565b91506119ec8383611c9c90919063ffffffff16565b905060e0604051908101604052808773ffffffffffffffffffffffffffffffffffffffff1681526020018b81526020018a8152602001848152602001828152602001866004811115611a3a57fe5b8152602001888152509c50505050505050505050505050919050565b6000806000806000806000806000600160009054906101000a900473ffffffffffffffffffffffffffffffffffffffff1673ffffffffffffffffffffffffffffffffffffffff16636be39bda8b6000604051604001526040518263ffffffff167c01000000000000000000000000000000000000000000000000000000000281526004018082600019166000191681526020019150506040805180830381600087803b1515611b0457600080fd5b6102c65a03f11515611b1557600080fd5b5050506040518051906020018051905080965081975050503073ffffffffffffffffffffffffffffffffffffffff168673ffffffffffffffffffffffffffffffffffffffff16141515611b6757600080fd5b611b70856111b1565b809450819550829650505050600260009054906101000a900473ffffffffffffffffffffffffffffffffffffffff1673ffffffffffffffffffffffffffffffffffffffff16635715c5b7856000604051602001526040518263ffffffff167c010000000000000000000000000000000000000000000000000000000002815260040180828152602001915050602060405180830381600087803b1515611c1557600080fd5b6102c65a03f11515611c2657600080fd5b5050506040518051905090508083839850985098505050505050509193909250565b6000806000841415611c5d5760009150611c7c565b8284029050828482811515611c6e57fe5b04141515611c7857fe5b8091505b5092915050565b6000828211151515611c9157fe5b818303905092915050565b6000808284019050838110151515611cb057fe5b8091505092915050565b6000806000611cee612710611ce086604001518760200151611c4890919063ffffffff16565b611d7390919063ffffffff16565b9150611d078460c0015183611c4890919063ffffffff16565b9050611d20818560200151611c9c90919063ffffffff16565b92505050919050565b6000806000611d45846060015186611c8390919063ffffffff16565b9150611d548460a00151611dab565b9050611d698183611d7390919063ffffffff16565b9250505092915050565b6000808284811515611d8157fe5b0490508091505092915050565b60008160020a8360019004811515611da257fe5b04905092915050565b6000806004811115611db957fe5b826004811115611dc557fe5b1415611dd557610e109050611e93565b60016004811115611de257fe5b826004811115611dee57fe5b1415611e01576018610e10029050611e93565b60026004811115611e0e57fe5b826004811115611e1a57fe5b1415611e305760076018610e1002029050611e93565b60036004811115611e3d57fe5b826004811115611e4957fe5b1415611e5f57601e6018610e1002029050611e93565b600480811115611e6b57fe5b826004811115611e7757fe5b1415611e8e5761016d6018610e1002029050611e93565b600080fd5b919050565b60e060405190810160405280600073ffffffffffffffffffffffffffffffffffffffff1681526020016000815260200160008152602001600081526020016000815260200160006004811115611eea57fe5b81526020016000815250905600a165627a7a72305820af0087ea966236b9f00bf08b90043e039048f667679a71d6f0e426fdb24a62030029",
  "source": "/*\n\n  Copyright 2017 Dharma Labs Inc.\n\n  Licensed under the Apache License, Version 2.0 (the \"License\");\n  you may not use this file except in compliance with the License.\n  You may obtain a copy of the License at\n\n    http://www.apache.org/licenses/LICENSE-2.0\n\n  Unless required by applicable law or agreed to in writing, software\n  distributed under the License is distributed on an \"AS IS\" BASIS,\n  WITHOUT WARRANTIES OR CONDITIONS OF ANY KIND, either express or implied.\n  See the License for the specific language governing permissions and\n  limitations under the License.\n\n*/\n\npragma solidity 0.4.18;\n\nimport \"./Collateralized.sol\";\nimport \"./SimpleInterestTermsContract.sol\";\n\n\n/**\n * Example collateralized terms contract for usage in simple interest debt agreements\n *\n * Authors: nadavhollander, saturnial, jdkanani\n */\ncontract CollateralizedSimpleInterestTermsContract is Collateralized, SimpleInterestTermsContract {\n    function CollateralizedSimpleInterestTermsContract(\n        address _debtKernel,\n        address _debtRegistry,\n        address _tokenRegistry,\n        address _repaymentRouter\n    )\n        public\n        SimpleInterestTermsContract(_debtKernel, _debtRegistry, _tokenRegistry, _repaymentRouter)\n        Collateralized(_debtKernel, _debtRegistry, _tokenRegistry)\n    {\n        // No initialization necessary\n    }\n\n    function getTermEndTimestamp(\n        bytes32 _agreementId\n    )\n        public\n        view\n        returns (uint)\n    {\n        SimpleInterestParams memory params = unpackParamsForAgreementID(_agreementId);\n\n        return params.termEndUnixTimestamp;\n    }\n}\n",
  "sourcePath": "/Users/frostiq/source/dharma/charta/contracts/examples/CollateralizedSimpleInterestTermsContract.sol",
  "compiler": {
    "name": "solc",
    "version": "0.4.18+commit.9cf6e910.Emscripten.clang"
  },
  "schemaVersion": "1.0.1",
  "updatedAt": "2018-03-28T11:32:48.541Z"
}