{
  "contractName": "DummyContract",
  "abi": [
    {
      "constant": false,
      "inputs": [
        {
          "name": "agent",
          "type": "address"
        }
      ],
      "name": "revokeInFirstSet",
      "outputs": [],
      "payable": false,
      "stateMutability": "nonpayable",
      "type": "function"
    },
    {
      "constant": true,
      "inputs": [],
      "name": "getSecondSetAuthorizedAgents",
      "outputs": [
        {
          "name": "",
          "type": "address[]"
        }
      ],
      "payable": false,
      "stateMutability": "view",
      "type": "function"
    },
    {
      "constant": true,
      "inputs": [
        {
          "name": "agent",
          "type": "address"
        }
      ],
      "name": "isAuthorizedInSecondSet",
      "outputs": [
        {
          "name": "",
          "type": "bool"
        }
      ],
      "payable": false,
      "stateMutability": "view",
      "type": "function"
    },
    {
      "constant": false,
      "inputs": [
        {
          "name": "agent",
          "type": "address"
        }
      ],
      "name": "revokeInSecondSet",
      "outputs": [],
      "payable": false,
      "stateMutability": "nonpayable",
      "type": "function"
    },
    {
      "constant": true,
      "inputs": [],
      "name": "getFirstSetAuthorizedAgents",
      "outputs": [
        {
          "name": "",
          "type": "address[]"
        }
      ],
      "payable": false,
      "stateMutability": "view",
      "type": "function"
    },
    {
      "constant": false,
      "inputs": [
        {
          "name": "agent",
          "type": "address"
        }
      ],
      "name": "authorizeInSecondSet",
      "outputs": [],
      "payable": false,
      "stateMutability": "nonpayable",
      "type": "function"
    },
    {
      "constant": false,
      "inputs": [
        {
          "name": "agent",
          "type": "address"
        }
      ],
      "name": "authorizeInFirstSet",
      "outputs": [],
      "payable": false,
      "stateMutability": "nonpayable",
      "type": "function"
    },
    {
      "constant": true,
      "inputs": [
        {
          "name": "agent",
          "type": "address"
        }
      ],
      "name": "isAuthorizedInFirstSet",
      "outputs": [
        {
          "name": "",
          "type": "bool"
        }
      ],
      "payable": false,
      "stateMutability": "view",
      "type": "function"
    }
  ],
  "bytecode": "0x6060604052341561000f57600080fd5b6108de8061001e6000396000f30060606040526004361061008e576000357c0100000000000000000000000000000000000000000000000000000000900463ffffffff1680633fe1b53314610093578063589e9a75146100cc5780637a381130146101365780638eb509a114610187578063a224cfac146101c0578063b38b5e581461022a578063bcd3486614610263578063c30563021461029c575b600080fd5b341561009e57600080fd5b6100ca600480803573ffffffffffffffffffffffffffffffffffffffff169060200190919050506102ed565b005b34156100d757600080fd5b6100df610304565b6040518080602001828103825283818151815260200191508051906020019060200280838360005b83811015610122578082015181840152602081019050610107565b505050509050019250505060405180910390f35b341561014157600080fd5b61016d600480803573ffffffffffffffffffffffffffffffffffffffff1690602001909190505061031b565b604051808215151515815260200191505060405180910390f35b341561019257600080fd5b6101be600480803573ffffffffffffffffffffffffffffffffffffffff16906020019091905050610338565b005b34156101cb57600080fd5b6101d361034f565b6040518080602001828103825283818151815260200191508051906020019060200280838360005b838110156102165780820151818401526020810190506101fb565b505050509050019250505060405180910390f35b341561023557600080fd5b610261600480803573ffffffffffffffffffffffffffffffffffffffff16906020019091905050610366565b005b341561026e57600080fd5b61029a600480803573ffffffffffffffffffffffffffffffffffffffff1690602001909190505061037d565b005b34156102a757600080fd5b6102d3600480803573ffffffffffffffffffffffffffffffffffffffff16906020019091905050610394565b604051808215151515815260200191505060405180910390f35b6103018160006103b190919063ffffffff16565b50565b61030c610821565b61031660036105f3565b905090565b600061033182600361068b90919063ffffffff16565b9050919050565b61034c8160036103b190919063ffffffff16565b50565b610357610821565b61036160006105f3565b905090565b61037a8160036106e490919063ffffffff16565b50565b6103918160006106e490919063ffffffff16565b50565b60006103aa82600061068b90919063ffffffff16565b9050919050565b60008060006103c0858561068b565b15156103cb57600080fd5b8460010160008573ffffffffffffffffffffffffffffffffffffffff1673ffffffffffffffffffffffffffffffffffffffff16815260200190815260200160002054925060018560020180549050039150846002018281548110151561042d57fe5b906000526020600020900160009054906101000a900473ffffffffffffffffffffffffffffffffffffffff1690508460000160008573ffffffffffffffffffffffffffffffffffffffff1673ffffffffffffffffffffffffffffffffffffffff16815260200190815260200160002060006101000a81549060ff02191690558085600201848154811015156104be57fe5b906000526020600020900160006101000a81548173ffffffffffffffffffffffffffffffffffffffff021916908373ffffffffffffffffffffffffffffffffffffffff160217905550828560010160008373ffffffffffffffffffffffffffffffffffffffff1673ffffffffffffffffffffffffffffffffffffffff168152602001908152602001600020819055508460010160008573ffffffffffffffffffffffffffffffffffffffff1673ffffffffffffffffffffffffffffffffffffffff1681526020019081526020016000206000905584600201828154811015156105a357fe5b906000526020600020900160006101000a81549073ffffffffffffffffffffffffffffffffffffffff0219169055600185600201818180549050039150816105eb9190610835565b505050505050565b6105fb610821565b8160020180548060200260200160405190810160405280929190818152602001828054801561067f57602002820191906000526020600020905b8160009054906101000a900473ffffffffffffffffffffffffffffffffffffffff1673ffffffffffffffffffffffffffffffffffffffff1681526020019060010190808311610635575b50505050509050919050565b60008260000160008373ffffffffffffffffffffffffffffffffffffffff1673ffffffffffffffffffffffffffffffffffffffff16815260200190815260200160002060009054906101000a900460ff16905092915050565b6106ee828261080c565b15156106f957600080fd5b60018260000160008373ffffffffffffffffffffffffffffffffffffffff1673ffffffffffffffffffffffffffffffffffffffff16815260200190815260200160002060006101000a81548160ff0219169083151502179055508160020180548060010182816107699190610861565b9160005260206000209001600083909190916101000a81548173ffffffffffffffffffffffffffffffffffffffff021916908373ffffffffffffffffffffffffffffffffffffffff1602179055505060018260020180549050038260010160008373ffffffffffffffffffffffffffffffffffffffff1673ffffffffffffffffffffffffffffffffffffffff168152602001908152602001600020819055505050565b6000610818838361068b565b15905092915050565b602060405190810160405280600081525090565b81548183558181151161085c5781836000526020600020918201910161085b919061088d565b5b505050565b81548183558181151161088857818360005260206000209182019101610887919061088d565b5b505050565b6108af91905b808211156108ab576000816000905550600101610893565b5090565b905600a165627a7a72305820a23c25661b2f09556d7b112223c907483b60fb310e8c117c100bb98d5a8036150029",
  "source": "/*\n\n  Copyright 2017 Dharma Labs Inc.\n\n  Licensed under the Apache License, Version 2.0 (the \"License\");\n  you may not use this file except in compliance with the License.\n  You may obtain a copy of the License at\n\n    http://www.apache.org/licenses/LICENSE-2.0\n\n  Unless required by applicable law or agreed to in writing, software\n  distributed under the License is distributed on an \"AS IS\" BASIS,\n  WITHOUT WARRANTIES OR CONDITIONS OF ANY KIND, either express or implied.\n  See the License for the specific language governing permissions and\n  limitations under the License.\n\n*/\n\npragma solidity 0.4.18;\n\nimport \"../libraries/PermissionsLib.sol\";\n\n\ncontract DummyContract {\n    using PermissionsLib for PermissionsLib.Permissions;\n\n    PermissionsLib.Permissions private firstPermissionSet;\n    PermissionsLib.Permissions private secondPermissionSet;\n\n    function authorizeInFirstSet(address agent) public {\n        firstPermissionSet.authorize(agent);\n    }\n\n    function authorizeInSecondSet(address agent) public {\n        secondPermissionSet.authorize(agent);\n    }\n\n    function revokeInFirstSet(address agent) public {\n        firstPermissionSet.revokeAuthorization(agent);\n    }\n\n    function revokeInSecondSet(address agent) public {\n        secondPermissionSet.revokeAuthorization(agent);\n    }\n\n    function isAuthorizedInFirstSet(address agent) public constant returns (bool) {\n        return firstPermissionSet.isAuthorized(agent);\n    }\n\n    function isAuthorizedInSecondSet(address agent) public constant returns (bool) {\n        return secondPermissionSet.isAuthorized(agent);\n    }\n\n    function getFirstSetAuthorizedAgents() public view returns (address[]) {\n        return firstPermissionSet.getAuthorizedAgents();\n    }\n\n    function getSecondSetAuthorizedAgents() public view returns (address[]) {\n        return secondPermissionSet.getAuthorizedAgents();\n    }\n}\n",
  "sourcePath": "/Users/frostiq/source/dharma/dharmajs-test/contracts/test/DummyContract.sol",
  "compiler": {
    "name": "solc",
    "version": "0.4.18+commit.9cf6e910.Emscripten.clang"
  },
  "schemaVersion": "1.0.1",
  "updatedAt": "2018-03-22T15:18:32.576Z"
}